:100000000C9462000C948A000C948A000C948A0070
:100010000C948A000C948A000C948A000C948A0038
:100020000C948A000C948A000C948A000C948A0028
:100030000C948A000C948A000C948A000C948A0018
:100040000C9471060C948A000C94E1060C94BB0687
:100050000C948A000C948A000C948A000C948A00F8
:100060000C948A000C948A000000000024002700F1
:100070002A0000000000250028002B0000000008D6
:10008000000201000003040700000000000000005F
:1000900000000000230026002900040404040404D6
:1000A0000404020202020202030303030303010227
:1000B00004081020408001020408102001020408F6
:1000C0001020130711241FBECFEFD8E0DEBFCDBF35
:1000D00012E0A0E0B1E0EEEEF9E102C005900D9271
:1000E000AA30B107D9F722E0AAE0B2E001C01D9220
:1000F000A73EB207E1F710E0C2E6D0E004C02197C6
:10010000FE010E94EF0CC136D107C9F70E947E079D
:100110000C94F50C0C940000CF92DF92EF92FF92BA
:10012000CF93DF93B091C302A0E08111AB2F8091F8
:10013000C40290E0880F991FAC0140575F4FC090F8
:10014000C902D090CA02E090CB02F090CC0230E01D
:1001500020E0FA01C591D491E881B90190E080E0F6
:10016000EB23EA130AC02F5F3F4F6C157D058E0508
:100170009F0578F36FEF7FEFCB01DF91CF91FF9079
:10018000EF90DF90CF900895833081F028F4813094
:1001900099F08230A9F008958730A9F08830C9F02D
:1001A0008430B1F4809180008F7D03C08091800005
:1001B0008F7780938000089584B58F7784BD0895EC
:1001C00084B58F7DFBCF8091B0008F778093B00096
:1001D00008958091B0008F7DF9CF1F93CF93DF9367
:1001E000282F30E0F901E458FF4F8491F901E255DE
:1001F000FF4FD491F901E656FF4FC491CC23A9F0EB
:10020000162F81110E94C400EC2FF0E0EE0FFF1FAB
:10021000EE58FF4FA591B4918FB7F894EC9111115E
:1002200008C0D095DE23DC938FBFDF91CF911F9163
:100230000895DE2BF8CFCF93DF9390E0FC01E255D9
:10024000FF4F249186569F4FFC0184918823C9F06B
:1002500090E0880F991FFC01E859FF4FA591B491D8
:10026000FC01EE58FF4FC591D49161110DC09FB7AD
:10027000F8948C91209582238C938881282328835D
:100280009FBFDF91CF910895623051F49FB7F894EA
:100290003C91822F809583238C93E8812E2BEFCF86
:1002A0008FB7F894EC912E2B2C938FBFEACF3FB7EA
:1002B000F8948091170290911802A0911902B091C0
:1002C0001A0226B5A89B05C02F3F19F00196A11D63
:1002D000B11D3FBFBA2FA92F982F8827BC01CD0190
:1002E000620F711D811D911D42E0660F771F881FEF
:1002F000991F4A95D1F708958F929F92AF92BF921E
:10030000CF92DF92EF92FF924B015C010E94570166
:100310006B017C010E9457016C197D098E099F09B0
:10032000683E734081059105A8F321E0821A910887
:10033000A108B10888EEC80E83E0D81EE11CF11CAC
:1003400081149104A104B10429F7FF90EF90DF908C
:10035000CF90BF90AF909F908F900895CF92DF92F3
:10036000EF92FF920F931F93CF93DF93CDB7DEB73A
:10037000C054D1400FB6F894DEBF0FBECDBF2FB72B
:10038000F89480911B0290911C02A0911D02B091E3
:100390001E022FBF4091C5025091C6026091C70254
:1003A0007091C8028C019D01041B150B260B370BA5
:1003B000B901A801403D57406105710590F4809155
:1003C000CD02C05CDE4F0FB6F894DEBF0FBECDBFCE
:1003D000DF91CF911F910F91FF90EF90DF90CF9021
:1003E00008958093C5029093C602A093C702B0936C
:1003F000C8021092C0021092BF021092BE02109268
:10040000BD021092BC0262E08091C1020E941B01F9
:1004100061E070E080E090E00E947C0161E080910A
:10042000C1020E941B0160E08091C1020E94ED00A8
:100430008091C2028551823020F58BE291E10197D3
:10044000F1F762E08091C1020E941B018091CE020F
:1004500090E08230910538F0880F991F880F991F1E
:1004600005970197F1F7F89480E00E948C006F3FA8
:100470007F4F8F4F9F4F61F41092CD02789480E0B0
:10048000A0CF64E170E080E090E00E947C01D9CFD1
:1004900081E00E948C006F3F7F4F8F4F9F4F61F331
:1004A0008E010F5F1F4F6E018FEBC81A8EEFD80AB7
:1004B000780180E00E948C00F70160837183828361
:1004C000938381E00E948C00F701648375838683A7
:1004D0009783F8E0EF0EF11CEC14FD0451F77894CB
:1004E00030E020E0F801C080D180E280F3804481D8
:1004F000558166817781FFEFCF16DF06EF06FF0695
:1005000031F04F3F8FEF58076807780719F41092C2
:10051000CD02B5CFF90183E0F595E7958A95E1F72E
:10052000E454FD4F8081880FC416D506E606F70611
:1005300010F180832F5F3F4F085F1F4F2832310536
:1005400089F64091C0022091BC028091BD02280F23
:100550003327331F8091BE02280F311D8091BF02C7
:10056000820F932F911D99274817190681F681E074
:100570008093CD0226CF8160DCCFDC01ED91FC9130
:100580000190F081E02D0994AF92BF92CF92DF925B
:10059000EF92FF920F931F93CF93DF936C017B0138
:1005A0008B01040F151FEB015E01AE18BF08C017C9
:1005B000D10759F06991D601ED91FC910190F0813C
:1005C000E02DC6010995892B79F7C501DF91CF91FF
:1005D0001F910F91FF90EF90DF90CF90BF90AF9061
:1005E0000895FC01538D448D252F30E0842F90E039
:1005F000821B930B541710F0CF960895019708951E
:10060000FC01918D828D981761F0A28DAE0FBF2FE6
:10061000B11D5D968C91928D9F5F9F73928F90E03C
:1006200008958FEF9FEF0895FC01918D828D9817AB
:1006300031F0828DE80FF11D858D90E008958FEFE8
:100640009FEF0895FC01918D228D892F90E0805CB1
:100650009F4F821B91098F73992708958FE192E034
:100660000E94220321E0892B09F420E0822F0895C3
:1006700080E090E0892B29F00E942E0381110C94D8
:1006800000000895FC01A48DA80FB92FB11DA35A35
:10069000BF4F2C91848D90E001968F739927848FA2
:1006A000A689B7892C93A089B1898C9183708064C5
:1006B0008C93938D848D981306C00288F389E02D66
:1006C00080818F7D80830895EF92FF920F931F9317
:1006D000CF93DF93EC0181E0888F9B8D8C8D9813F5
:1006E0001AC0E889F989808185FF15C09FB7F89401
:1006F000EE89FF896083E889F9898081837080644D
:1007000080839FBF81E090E0DF91CF911F910F9197
:10071000FF90EF900895F62E0B8D10E00F5F1F4FA6
:100720000F731127E02E8C8D8E110CC00FB607FCB5
:10073000FACFE889F989808185FFF5CFCE010E9443
:100740004203F1CFEB8DEC0FFD2FF11DE35AFF4F6C
:10075000F0829FB7F8940B8FEA89FB8980818062D1
:10076000CFCFCF93DF93EC01888D8823B9F0AA898E
:10077000BB89E889F9898C9185FD03C0808186FD5C
:100780000DC00FB607FCF7CF8C9185FFF2CF8081AB
:1007900085FFEDCFCE010E944203E9CFDF91CF91DB
:1007A0000895089590E080E00895CF93DF93EC01E1
:1007B00060E08E810E94ED0061E08E810E94ED007C
:1007C00060E08E810E94ED008BE891E00197F1F7E7
:1007D000DF91CF910895CF92DF92EF92FF920F9326
:1007E0001F93CF93DF936C017C0187E0E80EF11C2F
:1007F000D0E0C0E0062F10E0B8010C2E02C07595C5
:1008000067950A94E2F76170F70181917F010E9478
:10081000ED002196C430D10579F7C601DF91CF9163
:100820001F910F91FF90EF90DF90CF900C94D50324
:10083000CF92DF92EF92FF920F931F93CF93DF93AC
:10084000EC01F62E642F8C810E94ED008D818F3F8C
:1008500019F060E00E94ED000F2D10E08F8584FFFD
:1008600025C06E0187E0C80ED11CF12CE12CB80127
:100870000E2C02C0759567950A94E2F76170F60137
:1008800081916F010E94ED00FFEFEF1AFF0A88E0EF
:10089000E816F10461F7CE01DF91CF911F910F911E
:1008A000FF90EF90DF90CF900C94D503B80184E0D7
:1008B000759567958A95E1F7CE010E94EB036F2D40
:1008C000CE01DF91CF911F910F91FF90EF90DF90BC
:1008D000CF900C94EB0340E0682F8FEC92E00C94E7
:1008E000180481E00E946B048BE39FE10197F1F70C
:1008F0000895CF93DF93823029F49091DE029860BF
:100900009093DE028093E2021092E30280E48093EF
:10091000E40280E18093E50280E58093E60261E0F5
:100920008091D3020E941B018091D4028F3F19F065
:1009300061E00E941B0161E08091D5020E941B01D1
:10094000CFECD2E09E012F5C32408091DE0284FD2C
:100950000BC084E090E021962817390744F461E049
:100960008E810E941B01EECF88E090E0F4CF8BE3F4
:100970009DE00197F1F760E08091D3020E94ED00C5
:1009800060E08091D5020E94ED008091D4028F3FFB
:1009900019F060E00E94ED008091DE0284FD34C019
:1009A00063E08FEC92E00E94EB03CBE4D6E4CE014F
:1009B0000197F1F763E08FEC92E00E94EB0321973F
:1009C000F1F763E08FEC92E00E94EB0383E592E0A5
:1009D0000197F1F762E08FEC92E00E94EB038091C7
:1009E000DE0280620E946B0484E08093DF028CE070
:1009F0000E946B040E94710482E08093E00286E012
:100A0000DF91CF910C946B0480620E946B048BE4A5
:100A100096E40197F1F78091DE0280620E946B04F8
:100A200083E592E00197F1F78091DE0280620E94F7
:100A30006B04D5CFE091E202E33040F4E150F0E006
:100A4000E153FD4F848980680C946B04E2E0F7CF9A
:100A500041E00E94180481E090E00895FB010190BC
:100A60000020E9F73197AF01461B570BDC01ED91F0
:100A7000FC910280F381E02D09948F929F92AF92B6
:100A8000BF92EF92FF920F931F93CF93DF93CDB757
:100A9000DEB7A1970FB6F894DEBF0FBECDBF7C01C5
:100AA000FA01CB0119A2223008F42AE08E010F5D71
:100AB0001F4F822E912CB12CA12CBF01A5019401B6
:100AC0000E94CD0CF901CA016A300CF5605DD801B5
:100AD0006E938D01232B242B252B79F790E080E05A
:100AE000109721F0BD01C7010E942E05A1960FB6F7
:100AF000F894DEBF0FBECDBFDF91CF911F910F9154
:100B0000FF90EF90BF90AF909F908F900895695C99
:100B1000DECF2F923F924F925F926F927F928F9291
:100B20009F92AF92BF92CF92DF92EF92FF921F936C
:100B3000CF93DF93EC016A017B01722EAB0196012A
:100B4000CB01B6010E94C80C6EE171E0811126C094
:100B500046015701E894B7F82FEF3FEF4FE75FE703
:100B6000C501B4010E94C80C81110CC02FEF3FEFEA
:100B70004FE75FE7C501B4010E94FE0A62E271E03F
:100B8000181664F02FEF3FEF4FE75FE4C701B6019F
:100B90000E94560C1816B4F466E271E0CE01DF91A3
:100BA000CF911F91FF90EF90DF90CF90BF90AF90CB
:100BB0009F908F907F906F905F904F903F902F907D
:100BC0000C942E052FEF3FEF4FE75FECC701B60106
:100BD0000E94FE0A87FDE0CF20E030E0A901C701B6
:100BE000B6010E94FE0A312C212C87FF09C06DE25C
:100BF000CE010E94BD021C01F7FAF094F7F8F094C0
:100C000010E060E070E080E09FE3711641F020E0CA
:100C100030E040E251E40E94030B1F5FF6CFA701D2
:100C200096010E94920A2B013C010E94750B4B0118
:100C30005C012AE0BC01A401CE010E943D057C01BB
:100C4000E20CF31C1123C1F1C501B4010E94A40BF5
:100C50009B01AC01C301B2010E94910A4B015C01EE
:100C60006EE2CE010E94BD02E80EF91E115020F185
:100C700020E030E040E251E4C501B4010E945B0C89
:100C80002B013C010E94750B4B01B12CA12C2AE0D9
:100C9000B501A401CE010E943D05E80EF91EC50173
:100CA000B4010E94A40B9B01AC01C301B2010E94DC
:100CB000910A4B015C01DACFC701DF91CF911F91FF
:100CC000FF90EF90DF90CF90BF90AF909F908F906C
:100CD0007F906F905F904F903F902F9008950C946D
:100CE0002E051F920F920FB60F9211242F933F9350
:100CF0008F939F93AF93BF9380911B0290911C029F
:100D0000A0911D02B0911E023091160223E0230F24
:100D10002D3758F50196A11DB11D20931602809321
:100D20001B0290931C02A0931D02B0931E0280919F
:100D3000170290911802A0911902B0911A0201961F
:100D4000A11DB11D8093170290931802A093190260
:100D5000B0931A02BF91AF919F918F913F912F91C4
:100D60000F900FBE0F901F90189526E8230F029644
:100D7000A11DB11DD2CF1F920F920FB60F92112459
:100D80002F933F934F935F936F937F938F939F9393
:100D9000AF93BF93EF93FF938FE192E00E944203E2
:100DA000FF91EF91BF91AF919F918F917F916F9143
:100DB0005F914F913F912F910F900FBE0F901F9019
:100DC00018951F920F920FB60F9211242F938F93A5
:100DD0009F93EF93FF93E0912F02F0913002808177
:100DE000E0913502F091360282FD1BC09081809126
:100DF00038028F5F8F7320913902821741F0E091A2
:100E00003802F0E0E15EFD4F958F80933802FF914C
:100E1000EF919F918F912F910F900FBE0F901F9088
:100E200018958081F4CFEFE1F2E01382128288EE10
:100E300093E0A0E0B0E084839583A683B78384E049
:100E400091E09183808385EC90E09587848784ECA2
:100E500090E09787868780EC90E0918B808B81EC87
:100E600090E0938B828B82EC90E0958B848B86EC68
:100E700090E0978B868B118E128E138E148EEFEC72
:100E8000F2E01382128286E191E09183808382E016
:100E900084838FEF858383E0868384E0878385E086
:100EA000808786E0818787E082871386148615868F
:100EB0001686178681E00E947904ACEBB2E089E0E7
:100EC00015968C9315978BE016968C931697E7EBF7
:100ED000F0E0E4911796EC931797E3EAF0E0E491E1
:100EE0001896EC93189740E85EE360E070E01D967A
:100EF0004D935D936D937C9350970895789484B54A
:100F0000826084BD84B5816084BD85B5826085BD05
:100F100085B5816085BD80916E00816080936E0093
:100F20001092810080918100826080938100809185
:100F30008100816080938100809180008160809336
:100F400080008091B10084608093B1008091B000F6
:100F500081608093B00080917A00846080937A00F1
:100F600080917A00826080937A0080917A0081601B
:100F700080937A0080917A00806880937A00109242
:100F8000C100E0912F02F091300282E08083E09175
:100F90002B02F0912C021082E0912D02F0912E0292
:100FA0008FEC808310923702E0913302F09134028B
:100FB00086E08083E0913102F0913202808180618D
:100FC0008083E0913102F0913202808188608083D9
:100FD000E0913102F0913202808180688083E0915B
:100FE0003102F091320280818F7D808361E088E060
:100FF0000E941B0160E08AE00E941B0182E00E94C7
:1010000079046AE271E08FEC92E00E946F060E9420
:101010001A056CE371E08FEC92E00E946F0660E0CD
:1010200088E00E94ED0062E08091C1020E941B01F5
:101030002FB7F89480911B0290911C02A0911D0281
:10104000B0911E022FBF805D9740A109B109809326
:10105000C5029093C602A093C702B093C80287E36B
:101060008093CE0264E670E080E090E00E947C0114
:1010700040E4842E56E8252E50E0352EC8EBD0E013
:1010800004EA10E060E0A62E60E0B62E0E94AE01F9
:10109000882351F08091C2028B3030F08D3058F0AF
:1010A0008551823008F440C0412C512C30EC632E25
:1010B0003FE7732E1EC06091BD0270E090E080E0BB
:1010C0000E94A60B2DEC3CEC4CEC5DE30E945B0C0B
:1010D0006B017C016091BC0270E090E080E00E94B6
:1010E000A60B9B01AC01C701B6010E94920A2B011D
:1010F0003C0140920E0250920F02609210027092D8
:1011000011020E94AE01882341F08091C2028C300E
:1011100009F44CC1D8F48B3091F1C12CD12C90EC56
:10112000E92E9FE7F92E55C06091BC027091BD0277
:1011300076276727762790E080E00E94A40B2DECAD
:101140003CEC4CEC5DE30E945B0CD1CF85518230CE
:1011500020F79090BE02692D70E0762F66276627F3
:101160007F778091BF02682B90E080E00E94A40B03
:101170002DEC3CEC4CEC5DE30E945B0C33C16091C8
:10118000BE0270E090E080E00E94A40B6B017C0145
:101190009090BF0297FE0AC0AC019B0160E070E036
:1011A00080E89FEB0E94910A6B017C01692D6F70B2
:1011B00070E090E080E00E94A60B2DEC3CEC4CEC43
:1011C0005DE30E945B0CA70196010E94920A6B01ED
:1011D0007C01C0920A02D0920B02E0920C02F092C3
:1011E0000D02A3019201C301B2010E94C80C81113A
:1011F00009C0A7019601C701B6010E94C80C882347
:1012000009F4F9C064E471E08FE192E00E942E05D8
:1012100064E671E08FE192E00E942E0580927C00EE
:1012200080917A00806480937A0080917A0086FDB4
:10123000FCCF809178009091790090931302809375
:10124000120266EA71E08FE192E00E942E0564E6E8
:1012500071E08FE192E00E942E05C0901202D090C2
:1012600013020D2C000CEE08FF082AE0B701A601BE
:10127000F7FE0DC06DE28FE192E00E94BD024427AF
:101280005527BA014C195D096E097F092AE08FE1E3
:1012900092E00E943D0564E671E08FE192E00E94D9
:1012A0002E050E94710468EB71E08FEC92E00E94C1
:1012B0006F060E941A05C0901202D09013020D2CE6
:1012C000000CEE08FF082AE0B701A601F7FE0DC0EA
:1012D0006DE28FEC92E00E94BD0244275527BA01CF
:1012E0004C195D096E097F092AE08FEC92E00E949B
:1012F0003D0564E670E080E090E00E947C01F10131
:101300008491FE01F490F801E490EE2009F4ECC021
:1013100081110E94C400EE2DF0E0EE0FFF1FE05798
:10132000FF4FA591B4918C91F82291E080E009F4EF
:1013300090E0E92EF82EF0921502E092140264E695
:1013400070E080E090E00E947C01EF2809F0E0C0AE
:1013500080911202909113028D3B92400CF4C7C011
:1013600061E088E00E94ED000E94710469EC71E088
:101370008FEC92E00E946F060E941A0569ED71E001
:101380008FEC92E00E946F0664E670E080E090E0EF
:101390000E947C01A114B10409F478CE0E942E03AE
:1013A000882309F473CE0E94000070CE9090BE0294
:1013B000692D70E090E080E00E94A40B6B017C013D
:1013C0006091BF026F7070E090E080E00E94A60B19
:1013D0002DEC3CEC4CEC5DE30E945B0CA70196010C
:1013E0000E94920A6B017C0197FEF3CEF7FAF0940B
:1013F000F7F8F094EECE67E671E08FE192E00E949C
:101400006F0640910E0250910F0260911002709190
:10141000110222E08FE192E00E94890563E771E00A
:101420008FE192E00E946F060E94710465E771E00F
:101430008FEC92E00E946F060E941A0540910E0206
:1014400050910F02609110027091110222E08FEC16
:1014500092E00E94890565E671E08FE192E00E94CA
:101460006F0664E670E080E090E00E947C0162E834
:1014700071E08FE192E00E946F0640910A02509164
:101480000B0260910C0270910D0222E08FE192E05C
:101490000E94890560E971E08FE192E00E946F0689
:1014A0000E94710463E971E08FEC92E00E946F0684
:1014B0000E941A0540910A0250910B0260910C02A1
:1014C00070910D0222E08FEC92E00E94890565E6A2
:1014D00071E08FE192E00E946F0664E670E080E0C8
:1014E00090E00E947C019ACEF12CE12C24CF60E0A8
:1014F00088E00E94ED000E94710462EE71E08FECC2
:1015000092E00E946F060E941A0561EF71E038CFE9
:1015100060E088E00E94ED000E9471046BEF71E0D2
:10152000EECF5058BB27AA270E94A90A0C941C0C86
:101530000E940E0C38F00E94150C20F039F49F3FE9
:1015400019F426F40C940B0C0EF4E095E7FB0C94C4
:10155000050CE92F0E942D0C58F3BA176207730788
:101560008407950720F079F4A6F50C944F0C0EF43F
:10157000E0950B2EBA2FA02D0B01B90190010C01A3
:10158000CA01A0011124FF27591B99F0593F50F4BB
:10159000503E68F11A16F040A22F232F342F442713
:1015A000585FF3CF469537952795A795F04053950B
:1015B000C9F77EF41F16BA0B620B730B840BBAF0DB
:1015C0009150A1F0FF0FBB1F661F771F881FC2F746
:1015D0000EC0BA0F621F731F841F48F4879577955A
:1015E0006795B795F7959E3F08F0B0CF9395880F14
:1015F00008F09927EE0F9795879508950E94E10BC3
:1016000008F481E008950E94170B0C941C0C0E94B2
:10161000150C58F00E940E0C40F029F45F3F29F0A1
:101620000C94050C51110C94500C0C940B0C0E9452
:101630002D0C68F39923B1F3552391F3951B550BAA
:10164000BB27AA2762177307840738F09F5F5F4F95
:10165000220F331F441FAA1FA9F335D00E2E3AF0D4
:10166000E0E832D091505040E695001CCAF72BD0EC
:10167000FE2F29D0660F771F881FBB1F261737073D
:101680004807AB07B0E809F0BB0B802DBF01FF276F
:1016900093585F4F3AF09E3F510578F00C94050C3B
:1016A0000C94500C5F3FE4F3983ED4F38695779505
:1016B0006795B795F7959F5FC9F7880F911D969528
:1016C000879597F90895E1E0660F771F881FBB1F84
:1016D000621773078407BA0720F0621B730B840B31
:1016E000BA0BEE1F88F7E09508950E94350C88F03C
:1016F0009F5798F0B92F9927B751B0F0E1F0660FD6
:10170000771F881F991F1AF0BA95C9F714C0B13016
:1017100091F00E944F0CB1E008950C944F0C672F8C
:10172000782F8827B85F39F0B93FCCF38695779545
:101730006795B395D9F73EF490958095709561952E
:101740007F4F8F4F9F4F0895E89409C097FB3EF459
:1017500090958095709561957F4F8F4F9F4F9923FE
:10176000A9F0F92F96E9BB279395F695879577957C
:101770006795B795F111F8CFFAF4BB0F11F460FF3C
:101780001BC06F5F7F4F8F4F9F4F16C0882311F094
:1017900096E911C0772321F09EE8872F762F05C0A8
:1017A000662371F096E8862F70E060E02AF09A9543
:1017B000660F771F881FDAF7880F9695879597F938
:1017C0000895990F0008550FAA0BE0E8FEEF1616D2
:1017D0001706E807F907C0F012161306E407F50725
:1017E00098F0621B730B840B950B39F40A2661F099
:1017F000232B242B252B21F408950A2609F4A1403C
:10180000A6958FEF811D811D089597F99F6780E848
:1018100070E060E008959FEF80EC089500240A9442
:101820001616170618060906089500240A941216BB
:101830001306140605060895092E0394000C11F4EE
:10184000882352F0BB0F40F4BF2B11F460FF04C09B
:101850006F5F7F4F8F4F9F4F089557FD9058440FF4
:10186000551F59F05F3F71F04795880F97FB991FFF
:1018700061F09F3F79F087950895121613061406BC
:10188000551FF2CF4695F1DF08C016161706180649
:10189000991FF1CF86957105610508940895E89424
:1018A000BB2766277727CB0197F908950E94E10BA4
:1018B00008F48FEF08950E946E0C0C941C0C0E948B
:1018C0000E0C38F00E94150C20F0952311F00C94AA
:1018D000050C0C940B0C11240C94500C0E942D0C34
:1018E00070F3959FC1F3950F50E0551F629FF00173
:1018F000729FBB27F00DB11D639FAA27F00DB11D8C
:10190000AA1F649F6627B00DA11D661F829F222714
:10191000B00DA11D621F739FB00DA11D621F839F9B
:10192000A00D611D221F749F3327A00D611D231F71
:10193000849F600D211D822F762F6A2F11249F57BF
:1019400050409AF0F1F088234AF0EE0FFF1FBB1FC2
:10195000661F771F881F91505040A9F79E3F510581
:1019600080F00C94050C0C94500C5F3FE4F3983E0F
:10197000D4F3869577956795B795F795E7959F5F2B
:10198000C1F7FE2B880F911D9695879597F90895BD
:101990000E94E10B880B990B0895A1E21A2EAA1B55
:1019A000BB1BFD010DC0AA1FBB1FEE1FFF1FA2170F
:1019B000B307E407F50720F0A21BB30BE40BF50B0C
:1019C000661F771F881F991F1A9469F76095709595
:1019D000809590959B01AC01BD01CF010895EE0F5C
:0E19E000FF1F0590F491E02D0994F894FFCFBD
:1019EE00000000006403C402F102B10322030003ED
:1019FE001403000000002805C402D203D1036E6157
:101A0E006E00696E66006F766600536D61727420AB
:101A1E0049727269676174696F6E20002053595361
:101A2E0054454D004661696C656420746F20726583
:101A3E0061642066726F6D204448542073656E7326
:101A4E006F7221000D0A002048756D696469747902
:101A5E003A2000250048756D696469747920253A2D
:101A6E00200054656D70657261747572653A200060
:101A7E0043200054656D70657261747572652064E3
:101A8E00656743656C004D6F697374757265204CA4
:101A9E006576656C203A20004D6F697374757265BA
:101AAE00204C6576656C203A004C6F772077617418
:101ABE006572206C6576656C004D6F746F72204F89
:101ACE004E005761746572204C6576656C204F6BC5
:101ADE00004D6F746F72204F4646005261696E2042
:0A1AEE0044657465637465640000CC
:00000001FF
